{
  "contractName": "Color",
  "abi": [
    {
      "inputs": [],
      "stateMutability": "nonpayable",
      "type": "constructor"
    },
    {
      "anonymous": false,
      "inputs": [
        {
          "indexed": true,
          "internalType": "address",
          "name": "owner",
          "type": "address"
        },
        {
          "indexed": true,
          "internalType": "address",
          "name": "approved",
          "type": "address"
        },
        {
          "indexed": true,
          "internalType": "uint256",
          "name": "tokenId",
          "type": "uint256"
        }
      ],
      "name": "Approval",
      "type": "event"
    },
    {
      "anonymous": false,
      "inputs": [
        {
          "indexed": true,
          "internalType": "address",
          "name": "owner",
          "type": "address"
        },
        {
          "indexed": true,
          "internalType": "address",
          "name": "operator",
          "type": "address"
        },
        {
          "indexed": false,
          "internalType": "bool",
          "name": "approved",
          "type": "bool"
        }
      ],
      "name": "ApprovalForAll",
      "type": "event"
    },
    {
      "anonymous": false,
      "inputs": [
        {
          "indexed": true,
          "internalType": "address",
          "name": "from",
          "type": "address"
        },
        {
          "indexed": true,
          "internalType": "address",
          "name": "to",
          "type": "address"
        },
        {
          "indexed": true,
          "internalType": "uint256",
          "name": "tokenId",
          "type": "uint256"
        }
      ],
      "name": "Transfer",
      "type": "event"
    },
    {
      "inputs": [
        {
          "internalType": "address",
          "name": "to",
          "type": "address"
        },
        {
          "internalType": "uint256",
          "name": "tokenId",
          "type": "uint256"
        }
      ],
      "name": "approve",
      "outputs": [],
      "stateMutability": "nonpayable",
      "type": "function"
    },
    {
      "inputs": [
        {
          "internalType": "address",
          "name": "owner",
          "type": "address"
        }
      ],
      "name": "balanceOf",
      "outputs": [
        {
          "internalType": "uint256",
          "name": "",
          "type": "uint256"
        }
      ],
      "stateMutability": "view",
      "type": "function",
      "constant": true
    },
    {
      "inputs": [
        {
          "internalType": "uint256",
          "name": "",
          "type": "uint256"
        }
      ],
      "name": "colors",
      "outputs": [
        {
          "internalType": "string",
          "name": "",
          "type": "string"
        }
      ],
      "stateMutability": "view",
      "type": "function",
      "constant": true
    },
    {
      "inputs": [
        {
          "internalType": "uint256",
          "name": "tokenId",
          "type": "uint256"
        }
      ],
      "name": "getApproved",
      "outputs": [
        {
          "internalType": "address",
          "name": "",
          "type": "address"
        }
      ],
      "stateMutability": "view",
      "type": "function",
      "constant": true
    },
    {
      "inputs": [
        {
          "internalType": "address",
          "name": "owner",
          "type": "address"
        },
        {
          "internalType": "address",
          "name": "operator",
          "type": "address"
        }
      ],
      "name": "isApprovedForAll",
      "outputs": [
        {
          "internalType": "bool",
          "name": "",
          "type": "bool"
        }
      ],
      "stateMutability": "view",
      "type": "function",
      "constant": true
    },
    {
      "inputs": [],
      "name": "name",
      "outputs": [
        {
          "internalType": "string",
          "name": "",
          "type": "string"
        }
      ],
      "stateMutability": "view",
      "type": "function",
      "constant": true
    },
    {
      "inputs": [],
      "name": "nextTokenId",
      "outputs": [
        {
          "internalType": "uint256",
          "name": "",
          "type": "uint256"
        }
      ],
      "stateMutability": "view",
      "type": "function",
      "constant": true
    },
    {
      "inputs": [
        {
          "internalType": "uint256",
          "name": "tokenId",
          "type": "uint256"
        }
      ],
      "name": "ownerOf",
      "outputs": [
        {
          "internalType": "address",
          "name": "",
          "type": "address"
        }
      ],
      "stateMutability": "view",
      "type": "function",
      "constant": true
    },
    {
      "inputs": [
        {
          "internalType": "address",
          "name": "from",
          "type": "address"
        },
        {
          "internalType": "address",
          "name": "to",
          "type": "address"
        },
        {
          "internalType": "uint256",
          "name": "tokenId",
          "type": "uint256"
        }
      ],
      "name": "safeTransferFrom",
      "outputs": [],
      "stateMutability": "nonpayable",
      "type": "function"
    },
    {
      "inputs": [
        {
          "internalType": "address",
          "name": "from",
          "type": "address"
        },
        {
          "internalType": "address",
          "name": "to",
          "type": "address"
        },
        {
          "internalType": "uint256",
          "name": "tokenId",
          "type": "uint256"
        },
        {
          "internalType": "bytes",
          "name": "_data",
          "type": "bytes"
        }
      ],
      "name": "safeTransferFrom",
      "outputs": [],
      "stateMutability": "nonpayable",
      "type": "function"
    },
    {
      "inputs": [
        {
          "internalType": "address",
          "name": "operator",
          "type": "address"
        },
        {
          "internalType": "bool",
          "name": "approved",
          "type": "bool"
        }
      ],
      "name": "setApprovalForAll",
      "outputs": [],
      "stateMutability": "nonpayable",
      "type": "function"
    },
    {
      "inputs": [
        {
          "internalType": "bytes4",
          "name": "interfaceId",
          "type": "bytes4"
        }
      ],
      "name": "supportsInterface",
      "outputs": [
        {
          "internalType": "bool",
          "name": "",
          "type": "bool"
        }
      ],
      "stateMutability": "view",
      "type": "function",
      "constant": true
    },
    {
      "inputs": [],
      "name": "symbol",
      "outputs": [
        {
          "internalType": "string",
          "name": "",
          "type": "string"
        }
      ],
      "stateMutability": "view",
      "type": "function",
      "constant": true
    },
    {
      "inputs": [
        {
          "internalType": "uint256",
          "name": "tokenId",
          "type": "uint256"
        }
      ],
      "name": "tokenURI",
      "outputs": [
        {
          "internalType": "string",
          "name": "",
          "type": "string"
        }
      ],
      "stateMutability": "view",
      "type": "function",
      "constant": true
    },
    {
      "inputs": [
        {
          "internalType": "address",
          "name": "from",
          "type": "address"
        },
        {
          "internalType": "address",
          "name": "to",
          "type": "address"
        },
        {
          "internalType": "uint256",
          "name": "tokenId",
          "type": "uint256"
        }
      ],
      "name": "transferFrom",
      "outputs": [],
      "stateMutability": "nonpayable",
      "type": "function"
    },
    {
      "inputs": [
        {
          "internalType": "string",
          "name": "_color",
          "type": "string"
        }
      ],
      "name": "mint",
      "outputs": [],
      "stateMutability": "nonpayable",
      "type": "function"
    }
  ],
  "bytecode": "0x608060405260006007553480156200001657600080fd5b506040518060400160405280600581526020017f436f6c6f720000000000000000000000000000000000000000000000000000008152506040518060400160405280600581526020017f434f4c4f5200000000000000000000000000000000000000000000000000000081525081600090805190602001906200009b929190620000bd565b508060019080519060200190620000b4929190620000bd565b505050620001d2565b828054620000cb906200016d565b90600052602060002090601f016020900481019282620000ef57600085556200013b565b82601f106200010a57805160ff19168380011785556200013b565b828001600101855582156200013b579182015b828111156200013a5782518255916020019190600101906200011d565b5b5090506200014a91906200014e565b5090565b5b80821115620001695760008160009055506001016200014f565b5090565b600060028204905060018216806200018657607f821691505b602082108114156200019d576200019c620001a3565b5b50919050565b7f4e487b7100000000000000000000000000000000000000000000000000000000600052602260045260246000fd5b612a3380620001e26000396000f3fe608060405234801561001057600080fd5b50600436106101005760003560e01c806375794a3c11610097578063bd11f69d11610066578063bd11f69d146102ab578063c87b56dd146102db578063d85d3d271461030b578063e985e9c51461032757610100565b806375794a3c1461023757806395d89b4114610255578063a22cb46514610273578063b88d4fde1461028f57610100565b806323b872dd116100d357806323b872dd1461019f57806342842e0e146101bb5780636352211e146101d757806370a082311461020757610100565b806301ffc9a71461010557806306fdde0314610135578063081812fc14610153578063095ea7b314610183575b600080fd5b61011f600480360381019061011a9190611b55565b610357565b60405161012c9190611f81565b60405180910390f35b61013d610439565b60405161014a9190611f9c565b60405180910390f35b61016d60048036038101906101689190611bf8565b6104cb565b60405161017a9190611f1a565b60405180910390f35b61019d60048036038101906101989190611b15565b610550565b005b6101b960048036038101906101b491906119ff565b610668565b005b6101d560048036038101906101d091906119ff565b6106c8565b005b6101f160048036038101906101ec9190611bf8565b6106e8565b6040516101fe9190611f1a565b60405180910390f35b610221600480360381019061021c9190611992565b61079a565b60405161022e919061217e565b60405180910390f35b61023f610852565b60405161024c919061217e565b60405180910390f35b61025d610858565b60405161026a9190611f9c565b60405180910390f35b61028d60048036038101906102889190611ad5565b6108ea565b005b6102a960048036038101906102a49190611a52565b610a6b565b005b6102c560048036038101906102c09190611bf8565b610acd565b6040516102d29190611f9c565b60405180910390f35b6102f560048036038101906102f09190611bf8565b610b79565b6040516103029190611f9c565b60405180910390f35b61032560048036038101906103209190611baf565b610c20565b005b610341600480360381019061033c91906119bf565b610cf0565b60405161034e9190611f81565b60405180910390f35b60007f80ac58cd000000000000000000000000000000000000000000000000000000007bffffffffffffffffffffffffffffffffffffffffffffffffffffffff1916827bffffffffffffffffffffffffffffffffffffffffffffffffffffffff1916148061042257507f5b5e139f000000000000000000000000000000000000000000000000000000007bffffffffffffffffffffffffffffffffffffffffffffffffffffffff1916827bffffffffffffffffffffffffffffffffffffffffffffffffffffffff1916145b80610432575061043182610d84565b5b9050919050565b606060008054610448906123d4565b80601f0160208091040260200160405190810160405280929190818152602001828054610474906123d4565b80156104c15780601f10610496576101008083540402835291602001916104c1565b820191906000526020600020905b8154815290600101906020018083116104a457829003601f168201915b5050505050905090565b60006104d682610dee565b610515576040517f08c379a000000000000000000000000000000000000000000000000000000000815260040161050c906120de565b60405180910390fd5b6004600083815260200190815260200160002060009054906101000a900473ffffffffffffffffffffffffffffffffffffffff169050919050565b600061055b826106e8565b90508073ffffffffffffffffffffffffffffffffffffffff168373ffffffffffffffffffffffffffffffffffffffff1614156105cc576040517f08c379a00000000000000000000000000000000000000000000000000000000081526004016105c39061213e565b60405180910390fd5b8073ffffffffffffffffffffffffffffffffffffffff166105eb610e5a565b73ffffffffffffffffffffffffffffffffffffffff16148061061a575061061981610614610e5a565b610cf0565b5b610659576040517f08c379a00000000000000000000000000000000000000000000000000000000081526004016106509061205e565b60405180910390fd5b6106638383610e62565b505050565b610679610673610e5a565b82610f1b565b6106b8576040517f08c379a00000000000000000000000000000000000000000000000000000000081526004016106af9061215e565b60405180910390fd5b6106c3838383610ff9565b505050565b6106e383838360405180602001604052806000815250610a6b565b505050565b6000806002600084815260200190815260200160002060009054906101000a900473ffffffffffffffffffffffffffffffffffffffff169050600073ffffffffffffffffffffffffffffffffffffffff168173ffffffffffffffffffffffffffffffffffffffff161415610791576040517f08c379a00000000000000000000000000000000000000000000000000000000081526004016107889061209e565b60405180910390fd5b80915050919050565b60008073ffffffffffffffffffffffffffffffffffffffff168273ffffffffffffffffffffffffffffffffffffffff16141561080b576040517f08c379a00000000000000000000000000000000000000000000000000000000081526004016108029061207e565b60405180910390fd5b600360008373ffffffffffffffffffffffffffffffffffffffff1673ffffffffffffffffffffffffffffffffffffffff168152602001908152602001600020549050919050565b60075481565b606060018054610867906123d4565b80601f0160208091040260200160405190810160405280929190818152602001828054610893906123d4565b80156108e05780601f106108b5576101008083540402835291602001916108e0565b820191906000526020600020905b8154815290600101906020018083116108c357829003601f168201915b5050505050905090565b6108f2610e5a565b73ffffffffffffffffffffffffffffffffffffffff168273ffffffffffffffffffffffffffffffffffffffff161415610960576040517f08c379a00000000000000000000000000000000000000000000000000000000081526004016109579061201e565b60405180910390fd5b806005600061096d610e5a565b73ffffffffffffffffffffffffffffffffffffffff1673ffffffffffffffffffffffffffffffffffffffff16815260200190815260200160002060008473ffffffffffffffffffffffffffffffffffffffff1673ffffffffffffffffffffffffffffffffffffffff16815260200190815260200160002060006101000a81548160ff0219169083151502179055508173ffffffffffffffffffffffffffffffffffffffff16610a1a610e5a565b73ffffffffffffffffffffffffffffffffffffffff167f17307eab39ab6107e8899845ad3d59bd9653f200f220920489ca2b5937696c3183604051610a5f9190611f81565b60405180910390a35050565b610a7c610a76610e5a565b83610f1b565b610abb576040517f08c379a0000000000000000000000000000000000000000000000000000000008152600401610ab29061215e565b60405180910390fd5b610ac784848484611255565b50505050565b60068181548110610add57600080fd5b906000526020600020016000915090508054610af8906123d4565b80601f0160208091040260200160405190810160405280929190818152602001828054610b24906123d4565b8015610b715780601f10610b4657610100808354040283529160200191610b71565b820191906000526020600020905b815481529060010190602001808311610b5457829003601f168201915b505050505081565b6060610b8482610dee565b610bc3576040517f08c379a0000000000000000000000000000000000000000000000000000000008152600401610bba9061211e565b60405180910390fd5b6000610bcd6112b1565b90506000815111610bed5760405180602001604052806000815250610c18565b80610bf7846112c8565b604051602001610c08929190611ef6565b6040516020818303038152906040525b915050919050565b600881604051610c309190611edf565b908152602001604051809103902060009054906101000a900460ff1615610c5657600080fd5b600681908060018154018082558091505060019003906000526020600020016000909190919091509080519060200190610c919291906117a6565b5060076000815480929190610ca590612437565b91905055506001600882604051610cbc9190611edf565b908152602001604051809103902060006101000a81548160ff021916908315150217905550610ced33600754611429565b50565b6000600560008473ffffffffffffffffffffffffffffffffffffffff1673ffffffffffffffffffffffffffffffffffffffff16815260200190815260200160002060008373ffffffffffffffffffffffffffffffffffffffff1673ffffffffffffffffffffffffffffffffffffffff16815260200190815260200160002060009054906101000a900460ff16905092915050565b60007f01ffc9a7000000000000000000000000000000000000000000000000000000007bffffffffffffffffffffffffffffffffffffffffffffffffffffffff1916827bffffffffffffffffffffffffffffffffffffffffffffffffffffffff1916149050919050565b60008073ffffffffffffffffffffffffffffffffffffffff166002600084815260200190815260200160002060009054906101000a900473ffffffffffffffffffffffffffffffffffffffff1673ffffffffffffffffffffffffffffffffffffffff1614159050919050565b600033905090565b816004600083815260200190815260200160002060006101000a81548173ffffffffffffffffffffffffffffffffffffffff021916908373ffffffffffffffffffffffffffffffffffffffff160217905550808273ffffffffffffffffffffffffffffffffffffffff16610ed5836106e8565b73ffffffffffffffffffffffffffffffffffffffff167f8c5be1e5ebec7d5bd14f71427d1e84f3dd0314c0f7b2291e5b200ac8c7c3b92560405160405180910390a45050565b6000610f2682610dee565b610f65576040517f08c379a0000000000000000000000000000000000000000000000000000000008152600401610f5c9061203e565b60405180910390fd5b6000610f70836106e8565b90508073ffffffffffffffffffffffffffffffffffffffff168473ffffffffffffffffffffffffffffffffffffffff161480610fdf57508373ffffffffffffffffffffffffffffffffffffffff16610fc7846104cb565b73ffffffffffffffffffffffffffffffffffffffff16145b80610ff05750610fef8185610cf0565b5b91505092915050565b8273ffffffffffffffffffffffffffffffffffffffff16611019826106e8565b73ffffffffffffffffffffffffffffffffffffffff161461106f576040517f08c379a0000000000000000000000000000000000000000000000000000000008152600401611066906120fe565b60405180910390fd5b600073ffffffffffffffffffffffffffffffffffffffff168273ffffffffffffffffffffffffffffffffffffffff1614156110df576040517f08c379a00000000000000000000000000000000000000000000000000000000081526004016110d690611ffe565b60405180910390fd5b6110ea8383836115f7565b6110f5600082610e62565b6001600360008573ffffffffffffffffffffffffffffffffffffffff1673ffffffffffffffffffffffffffffffffffffffff168152602001908152602001600020600082825461114591906122ea565b925050819055506001600360008473ffffffffffffffffffffffffffffffffffffffff1673ffffffffffffffffffffffffffffffffffffffff168152602001908152602001600020600082825461119c9190612263565b92505081905550816002600083815260200190815260200160002060006101000a81548173ffffffffffffffffffffffffffffffffffffffff021916908373ffffffffffffffffffffffffffffffffffffffff160217905550808273ffffffffffffffffffffffffffffffffffffffff168473ffffffffffffffffffffffffffffffffffffffff167fddf252ad1be2c89b69c2b068fc378daa952ba7f163c4a11628f55a4df523b3ef60405160405180910390a4505050565b611260848484610ff9565b61126c848484846115fc565b6112ab576040517f08c379a00000000000000000000000000000000000000000000000000000000081526004016112a290611fbe565b60405180910390fd5b50505050565b606060405180602001604052806000815250905090565b60606000821415611310576040518060400160405280600181526020017f30000000000000000000000000000000000000000000000000000000000000008152509050611424565b600082905060005b6000821461134257808061132b90612437565b915050600a8261133b91906122b9565b9150611318565b60008167ffffffffffffffff81111561135e5761135d61256d565b5b6040519080825280601f01601f1916602001820160405280156113905781602001600182028036833780820191505090505b5090505b6000851461141d576001826113a991906122ea565b9150600a856113b89190612480565b60306113c49190612263565b60f81b8183815181106113da576113d961253e565b5b60200101907effffffffffffffffffffffffffffffffffffffffffffffffffffffffffffff1916908160001a905350600a8561141691906122b9565b9450611394565b8093505050505b919050565b600073ffffffffffffffffffffffffffffffffffffffff168273ffffffffffffffffffffffffffffffffffffffff161415611499576040517f08c379a0000000000000000000000000000000000000000000000000000000008152600401611490906120be565b60405180910390fd5b6114a281610dee565b156114e2576040517f08c379a00000000000000000000000000000000000000000000000000000000081526004016114d990611fde565b60405180910390fd5b6114ee600083836115f7565b6001600360008473ffffffffffffffffffffffffffffffffffffffff1673ffffffffffffffffffffffffffffffffffffffff168152602001908152602001600020600082825461153e9190612263565b92505081905550816002600083815260200190815260200160002060006101000a81548173ffffffffffffffffffffffffffffffffffffffff021916908373ffffffffffffffffffffffffffffffffffffffff160217905550808273ffffffffffffffffffffffffffffffffffffffff16600073ffffffffffffffffffffffffffffffffffffffff167fddf252ad1be2c89b69c2b068fc378daa952ba7f163c4a11628f55a4df523b3ef60405160405180910390a45050565b505050565b600061161d8473ffffffffffffffffffffffffffffffffffffffff16611793565b15611786578373ffffffffffffffffffffffffffffffffffffffff1663150b7a02611646610e5a565b8786866040518563ffffffff1660e01b81526004016116689493929190611f35565b602060405180830381600087803b15801561168257600080fd5b505af19250505080156116b357506040513d601f19601f820116820180604052508101906116b09190611b82565b60015b611736573d80600081146116e3576040519150601f19603f3d011682016040523d82523d6000602084013e6116e8565b606091505b5060008151141561172e576040517f08c379a000000000000000000000000000000000000000000000000000000000815260040161172590611fbe565b60405180910390fd5b805181602001fd5b63150b7a0260e01b7bffffffffffffffffffffffffffffffffffffffffffffffffffffffff1916817bffffffffffffffffffffffffffffffffffffffffffffffffffffffff19161491505061178b565b600190505b949350505050565b600080823b905060008111915050919050565b8280546117b2906123d4565b90600052602060002090601f0160209004810192826117d4576000855561181b565b82601f106117ed57805160ff191683800117855561181b565b8280016001018555821561181b579182015b8281111561181a5782518255916020019190600101906117ff565b5b509050611828919061182c565b5090565b5b8082111561184557600081600090555060010161182d565b5090565b600061185c611857846121be565b612199565b905082815260208101848484011115611878576118776125a1565b5b611883848285612392565b509392505050565b600061189e611899846121ef565b612199565b9050828152602081018484840111156118ba576118b96125a1565b5b6118c5848285612392565b509392505050565b6000813590506118dc816129a1565b92915050565b6000813590506118f1816129b8565b92915050565b600081359050611906816129cf565b92915050565b60008151905061191b816129cf565b92915050565b600082601f8301126119365761193561259c565b5b8135611946848260208601611849565b91505092915050565b600082601f8301126119645761196361259c565b5b813561197484826020860161188b565b91505092915050565b60008135905061198c816129e6565b92915050565b6000602082840312156119a8576119a76125ab565b5b60006119b6848285016118cd565b91505092915050565b600080604083850312156119d6576119d56125ab565b5b60006119e4858286016118cd565b92505060206119f5858286016118cd565b9150509250929050565b600080600060608486031215611a1857611a176125ab565b5b6000611a26868287016118cd565b9350506020611a37868287016118cd565b9250506040611a488682870161197d565b9150509250925092565b60008060008060808587031215611a6c57611a6b6125ab565b5b6000611a7a878288016118cd565b9450506020611a8b878288016118cd565b9350506040611a9c8782880161197d565b925050606085013567ffffffffffffffff811115611abd57611abc6125a6565b5b611ac987828801611921565b91505092959194509250565b60008060408385031215611aec57611aeb6125ab565b5b6000611afa858286016118cd565b9250506020611b0b858286016118e2565b9150509250929050565b60008060408385031215611b2c57611b2b6125ab565b5b6000611b3a858286016118cd565b9250506020611b4b8582860161197d565b9150509250929050565b600060208284031215611b6b57611b6a6125ab565b5b6000611b79848285016118f7565b91505092915050565b600060208284031215611b9857611b976125ab565b5b6000611ba68482850161190c565b91505092915050565b600060208284031215611bc557611bc46125ab565b5b600082013567ffffffffffffffff811115611be357611be26125a6565b5b611bef8482850161194f565b91505092915050565b600060208284031215611c0e57611c0d6125ab565b5b6000611c1c8482850161197d565b91505092915050565b611c2e8161231e565b82525050565b611c3d81612330565b82525050565b6000611c4e82612220565b611c588185612236565b9350611c688185602086016123a1565b611c71816125b0565b840191505092915050565b6000611c878261222b565b611c918185612247565b9350611ca18185602086016123a1565b611caa816125b0565b840191505092915050565b6000611cc08261222b565b611cca8185612258565b9350611cda8185602086016123a1565b80840191505092915050565b6000611cf3603283612247565b9150611cfe826125c1565b604082019050919050565b6000611d16601c83612247565b9150611d2182612610565b602082019050919050565b6000611d39602483612247565b9150611d4482612639565b604082019050919050565b6000611d5c601983612247565b9150611d6782612688565b602082019050919050565b6000611d7f602c83612247565b9150611d8a826126b1565b604082019050919050565b6000611da2603883612247565b9150611dad82612700565b604082019050919050565b6000611dc5602a83612247565b9150611dd08261274f565b604082019050919050565b6000611de8602983612247565b9150611df38261279e565b604082019050919050565b6000611e0b602083612247565b9150611e16826127ed565b602082019050919050565b6000611e2e602c83612247565b9150611e3982612816565b604082019050919050565b6000611e51602983612247565b9150611e5c82612865565b604082019050919050565b6000611e74602f83612247565b9150611e7f826128b4565b604082019050919050565b6000611e97602183612247565b9150611ea282612903565b604082019050919050565b6000611eba603183612247565b9150611ec582612952565b604082019050919050565b611ed981612388565b82525050565b6000611eeb8284611cb5565b915081905092915050565b6000611f028285611cb5565b9150611f0e8284611cb5565b91508190509392505050565b6000602082019050611f2f6000830184611c25565b92915050565b6000608082019050611f4a6000830187611c25565b611f576020830186611c25565b611f646040830185611ed0565b8181036060830152611f768184611c43565b905095945050505050565b6000602082019050611f966000830184611c34565b92915050565b60006020820190508181036000830152611fb68184611c7c565b905092915050565b60006020820190508181036000830152611fd781611ce6565b9050919050565b60006020820190508181036000830152611ff781611d09565b9050919050565b6000602082019050818103600083015261201781611d2c565b9050919050565b6000602082019050818103600083015261203781611d4f565b9050919050565b6000602082019050818103600083015261205781611d72565b9050919050565b6000602082019050818103600083015261207781611d95565b9050919050565b6000602082019050818103600083015261209781611db8565b9050919050565b600060208201905081810360008301526120b781611ddb565b9050919050565b600060208201905081810360008301526120d781611dfe565b9050919050565b600060208201905081810360008301526120f781611e21565b9050919050565b6000602082019050818103600083015261211781611e44565b9050919050565b6000602082019050818103600083015261213781611e67565b9050919050565b6000602082019050818103600083015261215781611e8a565b9050919050565b6000602082019050818103600083015261217781611ead565b9050919050565b60006020820190506121936000830184611ed0565b92915050565b60006121a36121b4565b90506121af8282612406565b919050565b6000604051905090565b600067ffffffffffffffff8211156121d9576121d861256d565b5b6121e2826125b0565b9050602081019050919050565b600067ffffffffffffffff82111561220a5761220961256d565b5b612213826125b0565b9050602081019050919050565b600081519050919050565b600081519050919050565b600082825260208201905092915050565b600082825260208201905092915050565b600081905092915050565b600061226e82612388565b915061227983612388565b9250827fffffffffffffffffffffffffffffffffffffffffffffffffffffffffffffffff038211156122ae576122ad6124b1565b5b828201905092915050565b60006122c482612388565b91506122cf83612388565b9250826122df576122de6124e0565b5b828204905092915050565b60006122f582612388565b915061230083612388565b925082821015612313576123126124b1565b5b828203905092915050565b600061232982612368565b9050919050565b60008115159050919050565b60007fffffffff0000000000000000000000000000000000000000000000000000000082169050919050565b600073ffffffffffffffffffffffffffffffffffffffff82169050919050565b6000819050919050565b82818337600083830152505050565b60005b838110156123bf5780820151818401526020810190506123a4565b838111156123ce576000848401525b50505050565b600060028204905060018216806123ec57607f821691505b60208210811415612400576123ff61250f565b5b50919050565b61240f826125b0565b810181811067ffffffffffffffff8211171561242e5761242d61256d565b5b80604052505050565b600061244282612388565b91507fffffffffffffffffffffffffffffffffffffffffffffffffffffffffffffffff821415612475576124746124b1565b5b600182019050919050565b600061248b82612388565b915061249683612388565b9250826124a6576124a56124e0565b5b828206905092915050565b7f4e487b7100000000000000000000000000000000000000000000000000000000600052601160045260246000fd5b7f4e487b7100000000000000000000000000000000000000000000000000000000600052601260045260246000fd5b7f4e487b7100000000000000000000000000000000000000000000000000000000600052602260045260246000fd5b7f4e487b7100000000000000000000000000000000000000000000000000000000600052603260045260246000fd5b7f4e487b7100000000000000000000000000000000000000000000000000000000600052604160045260246000fd5b600080fd5b600080fd5b600080fd5b600080fd5b6000601f19601f8301169050919050565b7f4552433732313a207472616e7366657220746f206e6f6e20455243373231526560008201527f63656976657220696d706c656d656e7465720000000000000000000000000000602082015250565b7f4552433732313a20746f6b656e20616c7265616479206d696e74656400000000600082015250565b7f4552433732313a207472616e7366657220746f20746865207a65726f2061646460008201527f7265737300000000000000000000000000000000000000000000000000000000602082015250565b7f4552433732313a20617070726f766520746f2063616c6c657200000000000000600082015250565b7f4552433732313a206f70657261746f7220717565727920666f72206e6f6e657860008201527f697374656e7420746f6b656e0000000000000000000000000000000000000000602082015250565b7f4552433732313a20617070726f76652063616c6c6572206973206e6f74206f7760008201527f6e6572206e6f7220617070726f76656420666f7220616c6c0000000000000000602082015250565b7f4552433732313a2062616c616e636520717565727920666f7220746865207a6560008201527f726f206164647265737300000000000000000000000000000000000000000000602082015250565b7f4552433732313a206f776e657220717565727920666f72206e6f6e657869737460008201527f656e7420746f6b656e0000000000000000000000000000000000000000000000602082015250565b7f4552433732313a206d696e7420746f20746865207a65726f2061646472657373600082015250565b7f4552433732313a20617070726f76656420717565727920666f72206e6f6e657860008201527f697374656e7420746f6b656e0000000000000000000000000000000000000000602082015250565b7f4552433732313a207472616e73666572206f6620746f6b656e2074686174206960008201527f73206e6f74206f776e0000000000000000000000000000000000000000000000602082015250565b7f4552433732314d657461646174613a2055524920717565727920666f72206e6f60008201527f6e6578697374656e7420746f6b656e0000000000000000000000000000000000602082015250565b7f4552433732313a20617070726f76616c20746f2063757272656e74206f776e6560008201527f7200000000000000000000000000000000000000000000000000000000000000602082015250565b7f4552433732313a207472616e736665722063616c6c6572206973206e6f74206f60008201527f776e6572206e6f7220617070726f766564000000000000000000000000000000602082015250565b6129aa8161231e565b81146129b557600080fd5b50565b6129c181612330565b81146129cc57600080fd5b50565b6129d88161233c565b81146129e357600080fd5b50565b6129ef81612388565b81146129fa57600080fd5b5056fea26469706673582212206560a1a7b898e7ac80bb095a410da6b6df4a7ceae2b51fb912a913329362420164736f6c63430008070033",
  "immutableReferences": {},
  "source": "// SPDX-License-Identifier: MIT\npragma solidity ^0.8.7;\n\nimport \"@openzeppelin/contracts/token/ERC721/ERC721.sol\";\n\ncontract Color is ERC721 {\n    string[] public colors;\n\n    uint256 public nextTokenId = 0;\n\n    mapping(string => bool) existingColors;\n\n    constructor() ERC721(\"Color\", \"COLOR\") {}\n\n    function mint(string memory _color) public {\n        require(!existingColors[_color]);\n\n        colors.push(_color);\n        nextTokenId++;\n\n        existingColors[_color] = true;\n\n        _mint(msg.sender, nextTokenId);\n    }\n}\n",
  "sourcePath": "/Users/mac/Documents/contracts/nft/src/contracts/Color.sol",
  "compiler": {
    "name": "solc",
    "version": "0.8.7+commit.e28d00a7.Emscripten.clang"
  },
  "schemaVersion": "3.4.3",
  "updatedAt": "2021-09-23T22:04:41.600Z",
  "networkType": "ethereum",
  "devdoc": {
    "kind": "dev",
    "methods": {
      "approve(address,uint256)": {
        "details": "See {IERC721-approve}."
      },
      "balanceOf(address)": {
        "details": "See {IERC721-balanceOf}."
      },
      "getApproved(uint256)": {
        "details": "See {IERC721-getApproved}."
      },
      "isApprovedForAll(address,address)": {
        "details": "See {IERC721-isApprovedForAll}."
      },
      "name()": {
        "details": "See {IERC721Metadata-name}."
      },
      "ownerOf(uint256)": {
        "details": "See {IERC721-ownerOf}."
      },
      "safeTransferFrom(address,address,uint256)": {
        "details": "See {IERC721-safeTransferFrom}."
      },
      "safeTransferFrom(address,address,uint256,bytes)": {
        "details": "See {IERC721-safeTransferFrom}."
      },
      "setApprovalForAll(address,bool)": {
        "details": "See {IERC721-setApprovalForAll}."
      },
      "supportsInterface(bytes4)": {
        "details": "See {IERC165-supportsInterface}."
      },
      "symbol()": {
        "details": "See {IERC721Metadata-symbol}."
      },
      "tokenURI(uint256)": {
        "details": "See {IERC721Metadata-tokenURI}."
      },
      "transferFrom(address,address,uint256)": {
        "details": "See {IERC721-transferFrom}."
      }
    },
    "version": 1
  },
  "userdoc": {
    "kind": "user",
    "methods": {},
    "version": 1
  }
}